:020000040800F2
:1000000000200010F9340308152C02085D350008A3
:10001000112C02080D2C0208092C02080000000017
:10002000000000000000000000000000052C020895
:10003000012C020800000000FD2B02082D2A0008F8
:10004000613503086135030861350308613503082C
:1000500061350308613503082D3700085938000859
:100060001D380008E1370008A5370008D9500008FE
:10007000C9500008B9500008A9500008995000085C
:100080008550000871500008613503086135030888
:10009000252F020861350308613503086937000818
:1000A00061210008A121000851210008C921000890
:1000B00091210008812100087121000861350308A1
:1000C00061350308613503086135030861350308AC
:1000D00061350308592B0008DD2A0008612A000851
:1000E000F136000861350308ED2B0208613503087D
:1000F000613503086135030861350308613503087C
:10010000000000000000000000000000613503084E
:100110006135030861350308894001086D40010815
:100120005D50000849500008355000082150000873
:100130000D500008613503080000000000000000B9
:1001400061350308613503086135030800000000CC
:10015000000000000000000000000000000000009F
:10016000000000000000000061350308613503084D
:1001700061350308000000000000000000000000DE
:080180000000000061350308D6
:1001880038B50B4C23688BB15A68821A002A054689
:1001980004DA0CE05A68AA1A002A07DB9A68226077
:1001A80018461A6890472368002BF3D138BD38BD2C
:1001B800803600200B4B002210B4027203F1DC04DD
:1001C800012102E0072A09DC9979890702D5197902
:1001D800815401329C4203F11403F3D15DF8044BBE
:1001E800704700BFB06A030824230370704700BF3C
:1001F800012310B415211424222244704171C270C5
:100208000370037183705DF8044B70472DE9F0416A
:100218000B78057BDB43DFB200F1130200F11D030D
:1002280002F8015F9342FBD1DFF890E000F127016B
:10023800002203F8012F9942FBD11421052400263E
:1002480047FA04F303F00103002B1E4414BF4FF0D8
:1002580019084FF00A0814F0010FF6B214BFAC46A3
:100268004FF0000C0023CA1810FA82F201334345FC
:1002780082F814C0F7D15A1E92B20132013C8B1891
:10028800621C9BB201D01946DAE716F0010F14BFC1
:1002980019240A240022991810FA81F10132A24285
:1002A8000D75F8D113449BB25A1C0344002192B235
:1002B8001975AEF800200261BDE8F081441F0020E6
:1002C8002DE9F04FDFF890A0BAF802300B3383B075
:1002D8001FFA83F901F1060B4FF001084FF0000CEB
:1002E800002711F801EB3E464C460122A4F10B030E
:1002F8009BB2019105E001339BB2017B29759C42B9
:1003080008D0C518002AF6D1C51801339BB29C4203
:100318002A75F6D103190136092F019983F814C0FB
:10032800F6B20CD0092E15D008FA07F313EA0E0F0F
:1003380014BF012200220C34A4B20137D6E709F118
:10034800780959451FFA89F9CAD1AAF802C003B039
:10035800BDE8F08F0022EEE7441F00202DE9F047AA
:10036800DFF85C80B8F8043004331FFA83FC01F12D
:1003780009094FF0010E11F8017B64460026231F7E
:100388000EFA06F29BB23A40C2B1B0F80CA0C518FA
:1003980001339BB29C4285F814A0F5D10136043490
:1003A800082EA4B2EBD10CF1200C49451FFA8CFCA5
:1003B800E1D10023A8F80430BDE8F0879246E6E7CB
:1003C800441F002010B40268047B11680223A34074
:1003D800194209D00649406800240C7001684FF69C
:1003E800FE742140016053605DF8044B704700BF04
:1003F8006C6F002070B4EFF31186502383F31288DA
:10040800436B1A68D20720D45D686DB9446A826A62
:10041800944217D081691144D9600ED9A21A5A6042
:100428008462002280F850201A6842F00102F1B27A
:100438001A6081F3118870BC704701698A1A5A6082
:100448008562EEE7012380F85030F1B281F311881C
:1004580070BC7047436A8269D154436A0169426B30
:1004680001338B4228BF00234362002A2FD0EFF3C9
:100478001181502383F31288436B1A68D2072CD456
:1004880070B45E686EB9456A826A954217D084690D
:100498001444DC600ED9AA1A5A608562002280F8DA
:1004A80050201A6842F00102C9B21A6081F311881B
:1004B80070BC70470469A21A5A608662EEE701238D
:1004C80080F85030C9B281F3118870BC7047C26C93
:1004D800136843F0800313607047C9B281F3118831
:1004E800704700BF026B10B462B1036CC268446904
:1004F800D11A013B615C5DF8044B08BF13460364E5
:10050800C8B27047016A4369C4685B5C0131A142A3
:1005180028BF114601625DF8044BD8B2704700BF8E
:10052800436B13B190F850007047836A406A181AF9
:10053800B0FA80F040097047416A836A99420AD349
:10054800CB1A416B026961B14968501E0B44834262
:100558000AD2C01A704702691144CB1A416B0029AC
:10056800F2D1501EC01A704700207047036B43B188
:10057800026C5B6893422FBF981AC0689B1AC01818
:100588007047C269036A9A422FBFD01AC0688018A0
:10059800C01A70470A4B30B503F1140493F90020D0
:1005A8005D78072AC8BF143A811804330D7313F80D
:1005B800025C855413F8012C0A76A342EED130BDB3
:1005C800FC4A030803682DE9F041DF691FB13B4687
:1005D800BDE8F0411847002A164611DD04460D46CD
:1005E8000E4400E023689B68204698470028F9D00D
:1005F800236815F8011B1B6820469847AE42F1D1C5
:10060800BDE8F08100232322027043708370C37019
:1006180070472D2343702E2303712F23C371704716
:10062800002870B51EDB0928044620DD012303EBF2
:1006380083035B00B0FBF3F2092AF8D87BB10E4EB6
:10064800B4FBF3F00928CCBF57223022A6FB03E500
:10065800024403FB1044EB0801F8012BF0D10023FE
:100668000B7070BD2D230B7040420131DBE7303039
:1006780001F8010BF3E700BFCDCCCCCC884230B4F5
:100688004FF001042ED301FB04F4B0FBF4F58D42C6
:10069800F9D284B1AAB901E0B0FBF4F5092DCCBFB9
:1006A800572230222A4404FB150003F8012BB4FB1F
:1006B800F1F4002CF0D100221A7030BC7047B0FB66
:1006C800F4F5092DCCBF372230222A4404FB15004B
:1006D80003F8012BB4FBF1F4002CF0D100221A70BE
:1006E80030BC70470546002AEBD1D7E703685A1C8F
:1006F80002601970704700BF2DE9F047089C257803
:10070800002B804689460CBF4FF0200A4FF0300A74
:10071800661C35B3002A29DD334601E0024698B14C
:1007280013F8011B501E0029F8D1971E60B13D46F1
:10073800013D51464046C8476B1C002BF8DC257824
:1007480027EAE770013055B1041B29464046C847DF
:10075800301916F8015B002DF7D1BDE8F087BDE828
:10076800F087002A04DC2846BDE8F0870020EBE784
:10077800571EDCE783684268D0ED037A00EB8301FB
:100788000133934281ED040A836004BF0023836030
:1007980000EB830393ED047A036870EE277A9A429C
:1007A800C0ED037A77EEC77AC0ED037A0CDA01332D
:1007B80007EE103AF8EEC76AB7EE007A87EEA60A97
:1007C800036030EE070A704707EE102AB8EEC77AC2
:1007D80087EE870A704700BF90ED057A90ED004AD2
:1007E800D0ED066AD0ED014AD0ED047A90ED035AB7
:1007F800D0ED025AA4EE007AB0EE406AB0EE470A95
:10080800B0EE667AA6EE247A67EEC07AA0EE457A54
:10081800E6EE257A80ED057AC0ED067A704700BFCE
:10082800D0ED057A90ED013AD0ED003AD0ED064AC8
:1008380090ED024A90ED077A90ED035A90ED086A20
:10084800D0ED045AC0ED067AF0EE406A27EE830A2E
:10085800C0ED056AA3EEA60A80ED087AA4EE240A84
:10086800A5EE470AA5EEC60A80ED070A704700BF45
:10087800D0ED007A90ED017A30EE670AE7EE007A63
:10088800B0EE670AC0ED007A704700BF704700BF3E
:100898000A44914214D030B40139551E41F2210264
:1008A80011F8014F082380EA042004044CBF82EAAF
:1008B80040004000013B80B2F7D18D42F0D130BCFE
:1008C800704700BF704700BF704700BF2DE9F04F69
:1008D800DFF81CB2DFF81CE2BBF80020DEF8086085
:1008E800BBF90430BBF90250BBF90A80C2EB2614ED
:1008F80004FB04F424135200C2EBE60203FB04F3E6
:1009080005FB02F29B1303EBE223B3F5FA364FEA39
:10091800E37589B045F1FF373246A6FB0645CDE9B8
:10092800024502FB07F205EB4202CDE90467029E8D
:10093800BBF90840039208FB02FC4FEAE87906FB82
:1009480009CC3A46A8FB0689049ECBF81830E5176F
:1009580004FB02F206FB0522A4FB0667E1441744E8
:100968004FEA182242EA096200924FEA29220192CC
:100978003D03DDE90078340345EA16553F19BBF815
:100988000660069048EB05083C1C48F5004503EB5B
:100998008302A4FB068906FB0599803213124FEAED
:1009A80069064FEAE977079356EA07038A4600F093
:1009B8009280DDE90489BBF90E20DEF80C40BBF912
:1009C80010004946C4F5801ED317DDE9024502FB35
:1009D80001F108FB0311A2FB08230B444FEA43492A
:1009E8002B46C11700FB03F304FB0133A0FB0401F2
:1009F800BBF90C401944E30001937346DC1700234C
:100A0800009349EAD2394FEA4248DDE9002310EB66
:100A1800080041EB0901E50712184FEACE744B4173
:100A280045EA5E05A41A65EB0305221945EB0503A3
:100A380012196B4199019001801841EA926159415C
:100A48008B00820043EA9073101943EB05018B0079
:100A5800820043EA907310460019194632463B4615
:100A6800694132F071FBBBF916204C13450B45EA7E
:100A7800C14502FB04F6D31705FB0366A2FB052359
:100A88003344BBF9146002FB04F405FB034406FB82
:100A980001FEA2FB0523F717234400FB07EE540EC3
:100AA800A6FB0067774444EAC3144FEAD648001906
:100AB8004FEA636548EA473869414FEAE74918EB66
:100AC8000008BBF9124049EB01094FEA182646EA2B
:100AD800096620013618069B0BB1360A1E60BAF16A
:100AE800000F02D0079BCAF8003009B0BDE8F08FAC
:100AF800CC3D0020441F0020704700BF50F8043C44
:100B0800012280F84520103803B11847704700BF0C
:100B18004FF400638382704770B5044682B0143086
:100B2800E56D06236A464321A847B0B19DF8040045
:100B38009DF800609DF801109DF802509DF8032073
:100B48009DF8053041EA062143EA002342EA0522DE
:100B5800A187E287A4F84030012002B070BD00BF31
:100B680070B5044682B00830656A06236A463B21A0
:100B7800A847A8B19DF804009DF800609DF80110F1
:100B88009DF802509DF803209DF8053041EA0621A2
:100B980043EA002342EA0522E1822283638301209B
:100BA80002B070BD10B490E80600047B40690223CF
:100BB800A3404B6013685DF8044B4FF6FE710B4081
:100BC800136017E470B40468037B2268022101FAF9
:100BD80003F31A4213D042690A495C2000FB02124F
:100BE8004FF6FE7650685289C5680068296831401A
:100BF8002960C168D24392B20A40C260636070BC87
:100C0800704700BF7847002030B40A4B1D7875B193
:100C1800094B002003EBC5051A6899885062D4680F
:100C28002143D160083323F8040CAB42F4D130BC23
:100C3800704700BF584A00205C4A002010B4026880
:100C4800047B11680223A340194209D00649406871
:100C580000240C7001684FF6FE7421400160536057
:100C68005DF8044B704700BFAE3F0020F0B4334C32
:100C780000EB800004EB80046468002C5BD0304EED
:100C880049004FF42040CDB23061A169090444D431
:100C980060682C4F45F08071384041F49031014331
:100CA8004FF420406160306103E0411E002838D0D5
:100CB8000846A1698F07F8D54FF42040A262306139
:100CC80002E0421E68B31046A2691106F9D56268AF
:100CD8001C4945F0007545F480350A4015434FF42A
:100CE80020406560306102E0421ED0B11046A26922
:100CF8009207F9D5A362A3694FF420409B0630619F
:100D080005D4431E68B11846A3699B06F9D520236C
:100D18003061E3610120F0BC7047411E08B108460C
:100D2800B3E7094A138801339BB24FF0FF313161B1
:100D38001380F0BC70472046F0BC70470473002055
:100D4800441F0020009800FC0031002013460020BA
:100D58000A4668218AE700BF024A034B12781978CD
:100D68001FF0FABB981F0020991F0020002326229D
:100D7800036002702722827001224360027183712E
:100D8800704770B5448806460D46C4F30B042246E6
:100D98000021284633F0F9FD33690A4A934209D302
:100DA800094A934206D2224628461946BDE87040B1
:100DB80032F002BD23B121462846BDE870401847ED
:100DC80070BD00BF9CAB030886AC03082DE9F04753
:100DD8000569C3681D4028D00F4606464FF00048F5
:100DE8004FF00009B5FA85F328FA03F2D2431B3B0A
:100DF80032611540042B16D8DFE803F03129211998
:100E080003007B6A002B32D003F1FF3A1FFA8AFAFB
:100E1800C7F824903C6A34B1236820465146984765
:100E28006468002CF8D1002DDCD1BDE8F087386863
:100E3800716B036889B29847002DD3D1F5E77868BC
:100E4800B16B036889B29847002DCBD1EDE7B8683C
:100E5800F16B036889B29847002DC3D1E5E7F868BC
:100E6800316C036889B29847002DBBD1DDE7F36A7E
:100E78001FFA83FACEE700BF30B50446C06C617133
:100E88000368A26823F00103036087B0A379009286
:100E980013F004023DD04FF4805213F00203019284
:100EA80044D102934FF480630022039311F00103AD
:100EB800059237D1049308238D07694648BF0493E8
:100EC80023F06CFA6079E36CA17900F00202002A41
:100ED80015BF4FF440324FF480324FF400340024F1
:100EE80010F0010F586808BF2246CC074CBF0243D8
:100EF80020EA02025A609A6809074CBF42F00802C9
:100F080022F008029A601A6842F001021A6007B0DB
:100F180030BD13F0020301920BD04FF40055134675
:100F28000295C1E7042304930C23C5E74FF400534B
:100F3800B7E70293B8E700BF10B50446C06CA160DC
:100F4800036823F001030360A37986B013F0040259
:100F5800009141D04FF4805213F00203019244D122
:100F680002934FF4806362790393D1074FF0000333
:100F78000493059345BF0423049308230C2369466F
:100F8800920748BF049323F009FA6079E36CA179CA
:100F980000F00202002A15BF4FF440324FF48032AD
:100FA8004FF40034002410F0010F586808BF22469F
:100FB800CC074CBF024320EA02025A609A6809072C
:100FC8004CBF42F0080222F008029A601A6842F008
:100FD80001021A6006B010BD13F00203019207D097
:100FE8004FF4005113460291BDE74FF40053B7E7A1
:100FF8000293B8E72DE9F341056906460F467DBB24
:10100800D0F80080C8F30A0323B30023D6F8008081
:10101800019320F0FBFB042819D1224C236943F0EB
:1010280001032361BBB2A8F8003020F0EFFB0428CD
:101038002ED108F102030193019B3F0C1F8020F081
:10104800E5FB2369042823F00103236125D06FF011
:10105800010505E020F0DAFB042805D04FF0FF3544
:10106800284602B0BDE8F0810E4C236943F0020324
:101078002361C4F81480236943F04003236120F0FE
:10108800C5FB2369042823F002032361BDD0E5E7EB
:10109800236923F001032361D9E7336804333360FC
:1010A800DEE700BF00200240F8B504460D468E1862
:1010B8000027B54201D12069F8BDE368591CE160F9
:1010C800234415F8012B1A720429F2D1A16820468D
:1010D800FFF790FFE7602061EBE700BF30B583B012
:1010E80005460C460C306A46032126F0E1FA60B347
:1010F8009DF800109DF801206B8B42EA012213FB3A
:1011080002F3002BB8BFFF3323F30F2323809DF88E
:1011180002109DF80320EB8B42EA012213FB02F335
:10112800002BB8BFFF3323F30F23A3809DF80410CF
:101138009DF80520AB8B42EA012213FB02F3002B3A
:10114800B8BFFF3323F30F23638003B030BD00BF64
:1011580070B582B06A46F72126F0AAFA9DF80120F8
:101168009DF804309DF800609DF803509DF80240FA
:101178009DF80500074912011B0142EA063243EABD
:10118800053342EA141243EA1013CA608B6002B0B6
:1011980070BD00BF441F0020022828BF022010B4E1
:1011A800084C094B207000EB8002C0EBC2020749D3
:1011B8005DF8044B013003EB4203C0B20B602BF027
:1011C80063BE00BFAC45002094420020B845002013
:1011D8002DE9F04F013085B0C3B203938E4D8F4F88
:1011E8008F4C904E0A2302933220DFF8409227F06A
:1011F80019FD4FF4FA7A4FF0100C4FF47A70D9F8C1
:101208000430C3F30803002B40F0C880EFF31183C8
:10121800002B40F0C3802968A26800BF2B68994260
:10122800F9D1D7F800E000FB0EF39B1AB3FBFEF3ED
:1012380000FB01314FF0010E0191D9F80430C3F3DE
:101248000803002B40F08E80EFF31183002B40F051
:1012580089802B68A16800BF2A689342F9D1D7F822
:1012680000B000FB0BF2521AB2FBFBF200FB0323A7
:10127800019A9B1AB3F57A7FDFD3BAF1010ABED17E
:10128800039B002B40F0C4804FF47A7ADFF89C91DE
:1012980050464FF0100CD9F80430C3F30803002B64
:1012A80040F09980EFF31183002B40F09480296877
:1012B800A26800BF2B689942F9D1D7F800E000FB7B
:1012C8000EF39B1AB3FBFEF300FB01314FF0010E46
:1012D8000191D9F80430C3F308033BBBEFF3118342
:1012E80023BB2B68A16800BF2A689342F9D1D7F8BD
:1012F80000B000FB0BF2521AB2FBFBF200FB032317
:10130800019A9B1AB3F57A7FE3D3BAF1010AC2D1E5
:10131800029B013B02937FF467AF4349434B444828
:10132800444A0860DA6005B0BDE8F08FEFF3118831
:101338008CF31288A1682368DB0344BFC6F800E079
:10134800A1682B6832685FFA88F888F31188D7F8A3
:1013580000801A4400FB08F35B1AB3FBF8F300FBA8
:101368000233CDE7EFF311888CF31288A168236864
:10137800DB0344BFC6F800E0A1682B6832685FFA57
:1013880088F888F31188D7F800801A4400FB08F31E
:101398005B1AB3FBF8F300FB023369E7EFF3118242
:1013A8008CF31288D4F808E02368D90303D5012305
:1013B8003360D4F808E02B683168D2B282F3118820
:1013C8003A68194400FB02F3A3EB0E03B3FBF2F3F4
:1013D80000FB01312EE7EFF311828CF31288D4F869
:1013E80008E02368D90303D501233360D4F808E063
:1013F8002B683168D2B282F311883A68194400FB2D
:1014080002F3A3EB0E03B3FBF2F300FB01315DE73C
:10141800184627F077FA37E76473002068730020CE
:1014280010E000E060730020FC9F002000ED00E069
:10143800EFBEADDE0400FA0538B5434B5A899989E9
:10144800914224BF00225A81198ADA89914224BF25
:101458000022DA81DA788AB3072A2FD03B493C4D3B
:1014680091F85700012400210A282C709C70D9712A
:101478003DD00C2865D0DFED377A8ABB364C9FED1E
:10148800370AA278002918BFF0EE407A062A04D855
:10149800334901EB820191ED050A217959B3013AEB
:1014A800032A4DD8F7EE007A87EE800A32F0B0FAB8
:1014B8002388984228BF1846208038BDD97921B1A1
:1014C80098780428B8BF04209870204890F85700EE
:1014D8000A280CD00C28CED1DFED227A002ACDD0F4
:1014E800072ACBD00A282CD1DFED1F7AC6E70A20BD
:1014F800DFED1E7AC1E79B78154A07EE103A11789E
:10150800B8EEC77A27EE277A07EE901AF8EEE77A50
:1015180067EE877AB4EEE70AF1EE10FA10DDC0EE56
:10152800077AFDEEE77A17EE903A102BA8BF102342
:10153800012BB8BF0123DBB28B4238BF0B461370B7
:1015480038BDDFED0B7A99E73C7600205076002015
:10155800BC7300206F120339504700206F12033804
:10156800FC4A03080AD7A3390F506E3A5304E938E6
:101578006F12833A38B50C4C0C4DAC4206D26168F8
:1015880020461434FFF7FDFBAC42F8D3084A094B58
:10159800094C1460002209491A705A7008480860FA
:1015A800BDE838401CF090BC28A703089CAB030892
:1015B800B8450020AC45002094420020F46B002080
:1015C800BC450020F0B50C292BD8DFE801F06F2AC4
:1015D8002A2A4C2A2A2A2B2A2A2A0700046AB2F81D
:1015E8000CE097881668674D24F480540462036AF7
:1015F8004468C16923F4005343EA0E3321F4E641F9
:10160800A84243EA073341EA062100F0B58005F510
:101618000065A84200F0B08092684460C16102642D
:101628000362F0BD046A96899588D2F800E0554FA8
:1016380024F480740462036A4468C16923F4007363
:1016480043EA062321F07301B84243EA052341EA3D
:101658000E017ED04C4DA8427BD092684460C16197
:10166800C2630362F0BD046A96899588D2F800E0E7
:10167800444F24F010040462036A4468816923F02B
:10168800200321F0807143EA061321F4E641B842B1
:1016980043EA051341EA0E2148D03B4DA84245D004
:1016A80092684460816182630362F0BD046A938931
:1016B800B2F804E01768334E24F001040462056AA6
:1016C8004468816943EA0E0321F4803125F002055C
:1016D8009BB221F07301B04243EA050341EA0701D6
:1016E80014D0294DA84211D005F54065A8420DD067
:1016F80005F58065A84209D005F58065A84205D0A2
:1017080092684460816142630362F0BDD689158A9C
:10171800578A23F0080333433D43D68824F44074A2
:1017280023F00403ADB233432C43E9E7D589178A84
:10173800D68823F0800343EA051324F44064558ACD
:1017480023F0400344EA870443EA061344EA850485
:10175800A6E7D589178AD68823F4006343EA0523C8
:1017680024F44054558A23F4806344EA071443EA76
:10177800062344EA051470E7158A24F4804444EAF1
:10178800851449E7002C0140003401402DE9F04F51
:101798004FF48C72002183B07848794CDFF80492BA
:1017A800784D794E794FDFF8008233F0EEF87848BB
:1017B8007849DFF8F8E1DFF8F8C1002213598342CD
:1017C80000F0C180B3F1804F00F0BF80AB4200F061
:1017D800C880B34200F0C780BB4200F0C6807345A2
:1017E80000F0C580634500F0C480434500F0C38025
:1017F800DFF8C0A153457ED00AF5806A534508BF7B
:10180800092379D01432F02AD8D15D4C624D634E49
:10181800604F04F1F00802E01434A04568D0A379C1
:10182800002BF9D023794FEA131909F1FF39B9F1DF
:10183800050F03F00F03EFD835F8190040FA03F24B
:10184800D207E9D54FF0010A0AFA03F3013B184021
:1018580031F0CAFC16F809305149184411EBC0029E
:10186800DAD051F83000DFF850E1217A00F138433E
:101878009B0A1EF8033003F01F0E5B09022B0AFABD
:101888000EFA69D0032B62D0012B03D17B694AEA97
:1018980003037B6193880093B3FA83F3C3F11F03B7
:1018A8009BB2DA0800EB820203F00703D2F820E0CB
:1018B8009B004FF00F0C0CFA03FC2EEA0C0EC2F83A
:1018C80020E0D2F820E001FA03F343EA0E031362A2
:1018D80069460023022214348DF804208DF805305F
:1018E8008DF806308DF8073022F00EFBA04596D112
:1018F80003B0BDE8F08F082309EBC3034FF0010BD9
:1019080093F834A00AF01F034FEA5A1ABAF1020FEB
:101918000BFA03F30BD0BAF1030F0ED0DA457FF4BC
:1019280071AFD1F814A043EA0A034B616AE7D1F812
:1019380018A043EA0A038B6164E7D1F81CA043EAC4
:101948000A03CB615EE70023D6E70123D4E7FB69EE
:101958004AEA0303FB619DE7BB694AEA0303BB61EB
:1019680098E70223C8E70323C6E70423C4E705234F
:10197800C2E70623C0E70723BEE700BFC025002053
:10198800B06A03080004004000080040001000404E
:10199800002C0140001002400C6E0308186E03086A
:1019A8000C750020FC4A0308004001400014004068
:1019B8000034014000440140A86A0308002867D0A9
:1019C80003682DE9F04F03F138445C4EA40A012561
:1019D800345D04F01F066409022C05FA06F558D098
:1019E800032C00F0A580012C58D08088B0FA80F430
:1019F800C4F11F04A4B2E50803EB850504F007044D
:101A08002E6AA4000F27A74026EA07062E622E6A30
:101A180001F00307A2407C1E3243012CC1F3810C64
:101A2800C1F300182A62C1F341113CD9C60700F17D
:101A38008980850700F19580440700F1A38002079B
:101A480000F1B180C60600F1BF80850600F1CD80A7
:101A5800440600F1DB80020600F1E980C60500F1CA
:101A6800F780850500F10581440500F11381020521
:101A780000F12181C60400F12F81850400F13D8128
:101A8800440400F14B81020400F15981BDE8F08F54
:101A980070472B4CA6693543A561A6E7284C6669B3
:101AA80035436561A1E7002422464FF0010E4FF04F
:101AB800030904E00132102A04F10204E6D00EFA08
:101AC80002F636EA0005F5D1D3F808A009FA04F5BC
:101AD800ED430AEA050AC3F808A0D3F808B00CFADF
:101AE80004FA4AEA0B0AC3F808A0B3F804A01FFADC
:101AF8008AFA2AEA06069E80B3F804A008FA02F6D3
:101B080046EA0A06B6B29E801E682E401E60D3F8CA
:101B180000A007FA04F646EA0A061E60D3F80CA0ED
:101B280001FA04F605EA0A0A46EA0A05DD60C1E791
:101B3800034CE6693543E56157E700BFA86A030827
:101B4800001002401A6822F003021A601A683A4329
:101B58001A60DA6822F003020A438507DA607FF523
:101B68006BAF1A6822F00C021A601A6842EA870200
:101B78001A60DA6822F00C0242EA81024407DA604D
:101B88007FF55DAF1A6822F030021A601A6842EADF
:101B980007121A60DA6822F0300242EA0112DA60AB
:101BA80002077FF54FAF1A6822F0C0021A601A6860
:101BB80042EA87121A60DA6822F0C00242EA811209
:101BC800C606DA607FF541AF1A6822F440721A60DF
:101BD8001A6842EA07221A60DA6822F4407242EA76
:101BE80001228506DA607FF533AF1A6822F4406275
:101BF8001A601A6842EA87221A60DA6822F4406298
:101C080042EA81224406DA607FF525AF1A6822F499
:101C180040521A601A6842EA07321A60DA6822F4F7
:101C2800405242EA0132DA6002067FF517AF1A68BD
:101C380022F440421A601A6842EA87321A60DA6867
:101C480022F4404242EA8132C605DA607FF509AFE4
:101C58001A6822F440321A601A6842EA07421A6087
:101C6800DA6822F4403242EA01428505DA607FF5FB
:101C7800FBAE1A6822F440221A601A6842EA8742C8
:101C88001A60DA6822F4402242EA81424405DA60A6
:101C98007FF5EDAE1A6822F440121A601A6842EA1B
:101CA80007521A60DA6822F4401242EA0152DA60F6
:101CB80002057FF5DFAE1A6822F440021A601A683E
:101CC80042EA87521A60DA6822F4400242EA8152F4
:101CD800C604DA607FF5D1AE1A6822F040721A6045
:101CE8001A6842EA07621A60DA6822F0407242EA29
:101CF80001628504DA607FF5C3AE1A6822F040629B
:101D08001A601A6842EA87621A60DA6822F040624A
:101D180042EA81624404DA607FF5B5AE1A6822F0BF
:101D280040521A601A6842EA07721A60DA6822F0AA
:101D3800405242EA0172DA6002047FF5A7AE1A68DF
:101D480022F040421A601A6842EA87771F60DA6810
:101D580022F0404242EA8171D960BDE8F08F00BFAD
:101D680003682DE9F04F03F13845644EAD0A0124AC
:101D7800755D05F01F066D09022D04FA06F400F0E2
:101D8800A280032D00F0A480012D52D08088B0FAE3
:101D980080F4C4F11F04A4B2E50803EB850504F040
:101DA80007042E6AA4000F27A74026EA07062E621A
:101DB8002E6A01F0030702FA04F47A1E3443012A5A
:101DC800C1F3810CC1F300182C62C1F3411135D95C
:101DD800C60700F19780850700F1A380440700F14A
:101DE800B180020700F1BF80C60600F1CD808506EC
:101DF80000F1DB80440600F1E980020600F1F7807B
:101E0800C60500F10581850500F11381440500F13F
:101E18002181020500F12F81C60400F13D8185046E
:101E280000F14B81440400F15981020455D4BDE806
:101E3800F08F334D6E6934436C61A7E70024224666
:101E48004FF0010E4FF0030904E00132102A04F1AB
:101E58000204ECD00EFA02F636EA0005F5D1D3F802
:101E680008A009FA04F5ED430AEA050AC3F808A030
:101E7800D3F808B00CFA04FA4AEA0B0AC3F808A027
:101E8800B3F804A01FFA8AFA2AEA06069E80B3F875
:101E980004A008FA02F646EA0A06B6B29E801E6850
:101EA8002E401E60D3F800A007FA04F646EA0A0698
:101EB8001E60D3F80CA001FA04F605EA0A0A46EAFD
:101EC8000A05DD60C1E70E4DAE693443AC615DE7DC
:101ED8000B4DEE693443EC6158E71A6822F0404232
:101EE8001A601A6842EA87771F60DA6822F040426F
:101EF80042EA8171D960BDE8F08F00BFA86A030883
:101F0800001002401A6822F003021A601A683A4365
:101F18001A60DA6822F003020A438507DA607FF55F
:101F28005DAF1A6822F00C021A601A6842EA87024A
:101F38001A60DA6822F00C0242EA81024407DA6089
:101F48007FF54FAF1A6822F030021A601A6842EA29
:101F580007121A60DA6822F0300242EA0112DA60E7
:101F680002077FF541AF1A6822F0C0021A601A68AA
:101F780042EA87121A60DA6822F0C00242EA811245
:101F8800C606DA607FF533AF1A6822F440721A6029
:101F98001A6842EA07221A60DA6822F4407242EAB2
:101FA80001228506DA607FF525AF1A6822F44062BF
:101FB8001A601A6842EA87221A60DA6822F44062D4
:101FC80042EA81224406DA607FF517AF1A6822F4E4
:101FD80040521A601A6842EA07321A60DA6822F434
:101FE800405242EA0132DA6002067FF509AF1A6808
:101FF80022F440421A601A6842EA87321A60DA68A4
:1020080022F4404242EA8132C605DA607FF5FBAE2F
:102018001A6822F440321A601A6842EA07421A60C3
:10202800DA6822F4403242EA01428505DA607FF537
:10203800EDAE1A6822F440221A601A6842EA874212
:102048001A60DA6822F4402242EA81424405DA60E2
:102058007FF5DFAE1A6822F440121A601A6842EA65
:1020680007521A60DA6822F4401242EA0152DA6032
:1020780002057FF5D1AE1A6822F440021A601A6888
:1020880042EA87521A60DA6822F4400242EA815230
:10209800C604DA607FF5C3AE1A6822F040721A608F
:1020A8001A6842EA07621A60DA6822F0407242EA65
:1020B80001628504DA607FF5B5AE1A6822F04062E5
:1020C8001A601A6842EA87621A60DA6822F0406287
:1020D80042EA81624404DA607FF5A7AE1A6822F00A
:1020E80040521A601A6842EA07721A60DA6822F0E7
:1020F800405242EA0172DA6097E600BF10B504095F
:10210800013C052C17D80D4B33F8142000F00F00B4
:1021180042FA00F313F001030DD0012303FA00F093
:102128000138104031F060F8054A064B125D104442
:1021380003EBC00010BD002010BD00BF0C6E0308EB
:10214800186E03080C75002001490248FEF73EBED0
:10215800B02600200048014001490248FEF736BE7B
:10216800602600200040014001490248FEF72EBECB
:10217800382600200008004001490248FEF726BE24
:10218800102600200004004002494FF08040FEF76E
:102198001DBE00BFE825002010B5064C06482146A4
:1021A800FEF714FE04F1C8010448BDE81040FEF72C
:1021B8000DBE00BFC0250020002C01400044014096
:1021C80001490248FEF702BEC0250020002C01404C
:1021D8002DE9F0410468514DA30AAB4200F0848018
:1021E8000AD94F4DAB4277D00135AB425FD0023DA3
:1021F800AB426DD0BDE8F0814A3DAB4270D00135AD
:10220800AB4258D0B3F5801FF4D14FF0480E0126E9
:1022180047794FEA970C00296AD0B00063468519C0
:102228000227D4F80C809F400CEB4503BFB23D4D0C
:1022380003F1040C47EA080745F8231045F82C2059
:10224800E760EFF31181502282F31288821905EBBF
:10225800C2021369002B32D013620433821905EBD2
:10226800C202576917B11F6053690433821905EB1D
:10227800C202976917B11F6093690433821905EB8D
:10228800C202D76917B11F60D36904330027CAB2E5
:102298001F6082F31188304405EBC000036A8BB9D4
:1022A800E3684FF6FE721340E360BDE8F0814FF437
:1022B800887E0626ACE74FF0980E0326A8E705EBC4
:1022C8000E03CBE7E36843F00103E360BDE8F08168
:1022D8004FF0C00E04269BE74FF0E80E052697E75F
:1022E8004FF0700E022693E74FF0200E00268FE77E
:1022F800BF08022306FA03F0BB40DB43E768094D39
:102308009BB23B4087190CEB470CE3600CF10403CC
:1023180045F82C1045F8232093E700BF4B00100028
:1023280051001000C025002030B503685C4D1888A6
:102338005C4CB4FBF2F20139013AAB4294B283B07F
:1023480089B282B266D05848834263D0B3F1804FD5
:1023580060D0A0F5983083425CD000F5806083425D
:1023680058D0524883425BD000F5806083427DD0CC
:1023780022F4407200F58C3092B283421A80D962FE
:102388001C850ED0484A93420BD002F54062934216
:1023980007D002F58062934203D002F5806293422F
:1023A80001D100221A8601225A611A883C4992B248
:1023B80042F001028B421A8062D0B3F1804F61D0A3
:1023C8003B4A934260D002F5806293425ED002F5A8
:1023D800006293425CD002F5806293425AD002F5C3
:1023E8009032934258D002F54062934256D002F59B
:1023F800806293421ED002F58062934208BF092290
:1024080019D002A84FF0012340F8043D21F046FD01
:1024180003B030BD254822F07002834292B2A3D1A6
:1024280001201A80D9621C8558611A8892B2024329
:102438001A80C5E708221F4B03EBC20301A893F8D3
:1024480035408DF80440012300228DF805308DF8C1
:1024580007308DF8062021F021FD1B2CD8D1164B12
:10246800019301A821F01AFD03B030BD01201A80A4
:10247800D9621C8558611A8892B202431A809CE777
:102488000022D8E70122D6E70222D4E70322D2E7C6
:102498000422D0E70522CEE70622CCE70722CAE7C6
:1024A800002C014000A24A04003401400010004002
:1024B80000040040FC4A030819010001204B98421F
:1024C8002DD0B0F1804F2CD0A3F5943398422AD068
:1024D80003F58063984228D003F50063984226D01C
:1024E80003F58063984224D003F59033984222D0B4
:1024F80003F54063984220D003F58063984207D0E3
:1025080003F58063984208BF092202D00020704773
:1025180008220C4B03EBC20393F8340070470022E7
:10252800F7E70122F5E70222F3E70322F1E70422A5
:10253800EFE70522EDE70622EBE70722E9E700BF10
:10254800002C0140FC4A03082DE9F04F013085B00A
:10255800C3B203930B4602918B4C8C4E002B00F0B8
:102568009A8032208A4D8B4FDFF82C9226F05AFB46
:102578004FF4FA7A4FF0100C4FF47A70D9F804300F
:10258800C3F30803002B40F0DE80EFF31183002B28
:1025980040F0D9802968A26800BF2B689942F9D118
:1025A800D7F800E000FB0EF39B1AB3FBFEF300FB29
:1025B80001314FF0010E0191D9F80430C3F308033B
:1025C800002B40F08780EFF31183002B40F08280CE
:1025D8002B68A16800BF2A689342F9D1D7F800B0E8
:1025E80000FB0BF2521AB2FBFBF200FB0323019A29
:1025F8009B1AB3F57A7FDFD3BAF1010ABED1039BE8
:10260800002B40F0BD804FF47A7ADFF88C91504669
:102618004FF0100CD9F80430C3F30803002B75D120
:10262800EFF31183002B71D12968A26800BF2B68D2
:102638009942F9D1D7F800E000FB0EF39B1AB3FBDF
:10264800FEF300FB01314FF0010E0191D9F804307F
:10265800C3F3080313BBEFF31183FBB92B68A1681D
:1026680000BF2A689342F9D1D7F800B000FB0BF2FB
:10267800521AB2FBFBF200FB0323019A9B1AB3F533
:102688007A7FE3D3BAF1010AC4D1029B013B0293DA
:10269800002B7FF466AF05B0BDE8F08FEFF311882B
:1026A8008CF31288A1682368DB0344BFC6F800E0F6
:1026B800A1682B6832685FFA88F888F31188D7F820
:1026C80000801A4400FB08F35B1AB3FBF8F300FB25
:1026D8000233D2E7EFF311888CF31288A1682368DC
:1026E800DB0344BFC6F800E0A1682B6832685FFAD4
:1026F80088F888F31188D7F800801A4400FB08F39B
:102708005B1AB3FBF8F300FB023370E7EFF31182B7
:102718008CF31288D4F808E02368D90303D5012381
:102728003360D4F808E02B683168D2B282F311889C
:102738003A68194400FB02F3A3EB0E03B3FBF2F370
:1027480000FB01317FE7EFF311828CF31288D4F894
:1027580008E02368D90303D501233360D4F808E0DF
:102768002B683168D2B282F311883A68194400FBA9
:1027780002F3A3EB0E03B3FBF2F300FB013118E7FE
:10278800184626F0BFF83EE710E000E0607300202E
:10279800647300206873002000ED00E0204B5B6844
:1027A800C3F3080330B4BBB9EFF31183A3B91D4BCE
:1027B8001D4C1868A16800BF1A689042F9D11B4BDC
:1027C8001C684FF47A7202FB04F3591AB1FBF4F156
:1027D80030BC02FB00107047EFF31182102383F323
:1027E800128811498C680B6813F4803F104B02D093
:1027F800012018608C680B49D2B20D68186882F302
:1028080011880A4B19684FF47A72284402FB01F3C5
:102818001B1B30BCB3FBF1F302FB0030704700BF59
:1028280000ED00E06473002010E000E06873002011
:10283800607300202DE9F84F8046FFF7AFFF254E63
:102848002549DFF8A0E0254A254D844610274FF496
:102858007A740120DEF80430C3F30803D3B9EFF328
:102868001183BBB90B68D2F808A000BFD1F800905B
:102878004B45F7D1D6F800B004FB0BF9A9EB0A09D0
:10288800B9FBFBF904FB0393A3EB0C034345E1D32A
:10289800BDE8F88FEFF3118A87F31288D2F808B0F1
:1028A8001368DB0344BF2860D2F808B00B68D5F87A
:1028B80000905FFA8AFA8AF31188D6F800A0994442
:1028C80004FB0AF3A3EB0B03B3FBFAF304FB093392
:1028D800DAE700BF687300206473002010E000E0AE
:1028E8006073002000ED00E02DE9F04FDFF830C103
:1028F800474A4849484E494D8046102718F1FF3845
:10290800C0F08480DCF80430C3F30803002B5CD1EA
:10291800EFF31183002B58D10B68946800BF086847
:102928008342F9D1D6F800904FF47A7000FB09FE83
:10293800AEEB040EBEFBF9FE00FB03EEDCF8043040
:10294800C3F308034FF47A740120FBB9EFF3118342
:10295800E3B90B68D2F808A000BFD1F800904B4546
:10296800F7D1D6F800B004FB0BF9A9EB0A09B9FBBB
:10297800FBF904FB0393A3EB0E03B3F57A7FBDD2F7
:10298800DCF80430C3F30803002BDFD0EFF3118A1F
:1029980087F31288D2F808B01368DB0344BF2860B5
:1029A800D2F808B00B68D5F800905FFA8AFA8AF373
:1029B8001188D6F800A0994404FB0AF3A3EB0B0393
:1029C800B3FBFAF304FB0933D5E7EFF3118487F37C
:1029D8001288D2F808901368D80303D501232B6016
:1029E800D2F808900B682868E4B284F31188D6F806
:1029F80000A04FF47A7400EB030E04FB0AF3A3EB78
:102A08000903B3FBFAF304FB0E3E97E7BDE8F08F2A
:102A180010E000E0647300206873002060730020F9
:102A280000ED00E030B4EFF31183102282F3128836
:102A38000649074C0A680748013200250A602560E4
:102A4800DBB2026883F3118830BC704764730020DE
:102A58006073002010E000E01D4B70B59C68E36CCB
:102A6800226BDD69C2B1636B2BB12B0702D5E36C16
:102A780008221A6270BD2A06F7D5A26A616A8A42DC
:102A88001FD0511CA069A162825C2069E66C81425A
:102A98003285EAD3A362E8E7A906E4D5E26A1AB167
:102AA800988C80B29047DEE7E1699B8C6069DBB265
:102AB8004E1CE6614354E169E368994228BFE2612C
:102AC800D1E7E26C136823F080031360CDE700BF01
:102AD800442F00201D4B70B55C68E36C226BDD69E8
:102AE800C2B1636B2BB12B0702D5E36C08221A62C3
:102AF80070BD2A06F7D5A26A616A8A421FD0511CA6
:102B0800A069A162825C2069E66C81423285EAD3C1
:102B1800A362E8E7A906E4D5E26A1AB1988C80B204
:102B28009047DEE7E1699B8C6069DBB24E1CE66189
:102B38004354E169E368994228BFE261D1E7E26C56
:102B4800136823F080031360CDE700BF442F0020F3
:102B58001D4B70B51C68E36C226BDD69C2B1636BF9
:102B68002BB12B0702D5E36C08221A6270BD2A0626
:102B7800F7D5A26A616A8A421FD0511CA069A16276
:102B8800825C2069E66C81423285EAD3A362E8E779
:102B9800A906E4D5E26A1AB1988C80B29047DEE7BC
:102BA800E1699B8C6069DBB24E1CE6614354E169C4
:102BB800E368994228BFE261D1E7E26C136823F029
:102BC80080031360CDE700BF442F002003685B6AD1
:102BD80003B11847704700BF03681B6A03B1184761
:102BE800704700BF03682DE9F041DF691FB13B461C
:102BF800BDE8F0411847002A164611DD04460D4687
:102C08000E4400E023689B68204698470028F9D0C6
:102C1800236815F8011B1B6820469847AE42F1D17E
:102C2800BDE8F08103689B69184700BF03685B69CA
:102C3800184700BF0368DB68184700BF03689B6834
:102C4800184700BF03685B68184700BF03681B6824
:102C5800184700BF014B1868F8E700BFEC88002050
:102C6800054B53F8203033B11A689B88918A0B4280
:102C780018BF1B049361704730730020036803F189
:102C880038422DE9F04F920A584DAA5C02F01F0510
:102C980052090124022A04FA05F400F08C80032A60
:102CA80000F08E80012A3CD001F003077A1E012A29
:102CB800C1F3810CC1F300188088C1F3411135D9E3
:102CC800C60700F19780850700F1A380440700F14B
:102CD800B180020700F1BF80C60600F1CD808506ED
:102CE80000F1DB80440600F1E980020600F1F7807C
:102CF800C60500F10581850500F11381440500F141
:102D08002181020500F12F81C60400F13D8185046F
:102D180000F14B81440400F15981020455D4BDE807
:102D2800F08F334A55692C435461BDE7002422468D
:102D38004FF0010E4FF0030904E00132102A04F1AC
:102D48000204ECD00EFA02F636EA0005F5D1D3F803
:102D580008A009FA04F5ED430AEA050AC3F808A031
:102D6800D3F808B00CFA04FA4AEA0B0AC3F808A028
:102D7800B3F804A01FFA8AFA2AEA06069E80B3F876
:102D880004A008FA02F646EA0A06B6B29E801E6851
:102D98002E401E60D3F800A007FA04F646EA0A0699
:102DA8001E60D3F80CA001FA04F605EA0A0A46EAFE
:102DB8000A05DD60C1E70E4A95692C43946173E703
:102DC8000B4AD5692C43D4616EE71A6822F0404259
:102DD8001A601A6842EA87771F60DA6822F0404270
:102DE80042EA8171D960BDE8F08F00BFA86A030884
:102DF800001002401A6822F003021A601A683A4367
:102E08001A60DA6822F003020A438507DA607FF560
:102E18005DAF1A6822F00C021A601A6842EA87024B
:102E28001A60DA6822F00C0242EA81024407DA608A
:102E38007FF54FAF1A6822F030021A601A6842EA2A
:102E480007121A60DA6822F0300242EA0112DA60E8
:102E580002077FF541AF1A6822F0C0021A601A68AB
:102E680042EA87121A60DA6822F0C00242EA811246
:102E7800C606DA607FF533AF1A6822F440721A602A
:102E88001A6842EA07221A60DA6822F4407242EAB3
:102E980001228506DA607FF525AF1A6822F44062C0
:102EA8001A601A6842EA87221A60DA6822F44062D5
:102EB80042EA81224406DA607FF517AF1A6822F4E5
:102EC80040521A601A6842EA07321A60DA6822F435
:102ED800405242EA0132DA6002067FF509AF1A6809
:102EE80022F440421A601A6842EA87321A60DA68A5
:102EF80022F4404242EA8132C605DA607FF5FBAE31
:102F08001A6822F440321A601A6842EA07421A60C4
:102F1800DA6822F4403242EA01428505DA607FF538
:102F2800EDAE1A6822F440221A601A6842EA874213
:102F38001A60DA6822F4402242EA81424405DA60E3
:102F48007FF5DFAE1A6822F440121A601A6842EA66
:102F580007521A60DA6822F4401242EA0152DA6033
:102F680002057FF5D1AE1A6822F440021A601A6889
:102F780042EA87521A60DA6822F4400242EA815231
:102F8800C604DA607FF5C3AE1A6822F040721A6090
:102F98001A6842EA07621A60DA6822F0407242EA66
:102FA80001628504DA607FF5B5AE1A6822F04062E6
:102FB8001A601A6842EA87621A60DA6822F0406288
:102FC80042EA81624404DA607FF5A7AE1A6822F00B
:102FD80040521A601A6842EA07721A60DA6822F0E8
:102FE800405242EA0172DA6097E600BF2DE9F04FDD
:102FF8004A484B4B4B4C4FF090414FF0010A4FF071
:1030080002094FF004084FF0080C4FF0100E20276B
:103018004026802530F8022B12F0010F03D01960EA
:10302800A3F804A0083312F0020F03D01960A3F824
:103038000490083312F0040F03D01960A3F8048039
:10304800083312F0080F03D01960A3F804C008333E
:1030580012F0100F03D01960A3F804E0083312F03F
:10306800200F02D019609F80083312F0400F02D061
:1030780019609E80083312F0800F02D019609D807D
:10308800083312F4807F05D04FF4807B1960A3F8D1
:1030980004B0083312F4007F05D04FF4007B1960A8
:1030A800A3F804B0083312F4806F05D04FF4806B96
:1030B8001960A3F804B0083312F4006F05D04FF478
:1030C800006B1960A3F804B0083312F4805F05D0D0
:1030D8004FF4805B1960A3F804B0083312F4005F62
:1030E80005D04FF4005B1960A3F804B0083312F45C
:1030F800804F05D04FF4804B1960A3F804B0083313
:10310800D20B04D04FF4004219609A80083301F5BD
:103118008061A1427FF47EAFBDE8F08F0C6E03089A
:103128000C75002000180048002852D0036803F1ED
:1031380038422DE9F04F920A504DAA5C02F01F0563
:1031480052090124022A04FA05F443D0032A00F0A4
:103158009080012A43D001F003077A1E012AC1F3A7
:10316800810CC1F300188088C1F341113CD9C6070E
:1031780000F18880850700F19480440700F1A2805F
:10318800020700F1B080C60600F1BE80850600F196
:10319800CC80440600F1DA80020600F1E880C6051A
:1031A80000F1F680850500F10481440500F11281E3
:1031B800020500F12081C60400F12E81850400F18A
:1031C8003C81440400F14A81020400F15881BDE8C1
:1031D800F08F70472A4A95692C439461BBE7284AC7
:1031E80055692C435461B6E7002422464FF0010E7E
:1031F8004FF0030904E00132102A04F10204E6D07A
:103208000EFA02F636EA0005F5D1D3F808A009FA55
:1032180004F5ED430AEA050AC3F808A0D3F808B094
:103228000CFA04FA4AEA0B0AC3F808A0B3F804A097
:103238001FFA8AFA2AEA06069E80B3F804A008FA5A
:1032480002F646EA0A06B6B29E801E682E401E6046
:10325800D3F800A007FA04F646EA0A061E60D3F877
:103268000CA001FA04F605EA0A0A46EA0A05DD6036
:10327800C1E7034AD5692C43D4616CE7A86A0308FF
:10328800001002401A6822F003021A601A683A43D2
:103298001A60DA6822F003020A438507DA607FF5CC
:1032A8006CAF1A6822F00C021A601A6842EA8702A8
:1032B8001A60DA6822F00C0242EA81024407DA60F6
:1032C8007FF55EAF1A6822F030021A601A6842EA87
:1032D80007121A60DA6822F0300242EA0112DA6054
:1032E80002077FF550AF1A6822F0C0021A601A6808
:1032F80042EA87121A60DA6822F0C00242EA8112B2
:10330800C606DA607FF542AF1A6822F440721A6086
:103318001A6842EA07221A60DA6822F4407242EA1E
:1033280001228506DA607FF534AF1A6822F440621C
:103338001A601A6842EA87221A60DA6822F4406240
:1033480042EA81224406DA607FF526AF1A6822F441
:1033580040521A601A6842EA07321A60DA6822F4A0
:10336800405242EA0132DA6002067FF518AF1A6865
:1033780022F440421A601A6842EA87321A60DA6810
:1033880022F4404242EA8132C605DA607FF50AAF8C
:103398001A6822F440321A601A6842EA07421A6030
:1033A800DA6822F4403242EA01428505DA607FF5A4
:1033B800FCAE1A6822F440221A601A6842EA874270
:1033C8001A60DA6822F4402242EA81424405DA604F
:1033D8007FF5EEAE1A6822F440121A601A6842EAC3
:1033E80007521A60DA6822F4401242EA0152DA609F
:1033F80002057FF5E0AE1A6822F440021A601A68E6
:1034080042EA87521A60DA6822F4400242EA81529C
:10341800C604DA607FF5D2AE1A6822F040721A60EC
:103428001A6842EA07621A60DA6822F0407242EAD1
:1034380001628504DA607FF5C4AE1A6822F0406242
:103448001A601A6842EA87621A60DA6822F04062F3
:1034580042EA81624404DA607FF5B6AE1A6822F067
:1034680040521A601A6842EA07721A60DA6822F053
:10347800405242EA0172DA6002047FF5A8AE1A6887
:1034880022F040421A601A6842EA87771F60DA68B9
:1034980022F0404242EA8171D960BDE8F08F00BF56
:1034A80010B1036882881A85704700BF10B103689D
:1034B80082889A61704700BF38B100298388026802
:1034C80014BF002110218B40936170470E4B1B885D
:1034D80001463BB90D4B0E4A1B7810680BB981F0B9
:1034E8000101E9E70B4B5A691AB118B91A6810605B
:1034F80058747047084A18681188084A92FBF1F214
:1035080001210260597470473C7300203E7300200B
:1035180040730020447300205C73002020A1070042
:1035280010B40A4B0A4A1C7801238340234052F8FE
:10353800200029B9B3FA83F149095DF8044BBBE7C8
:10354800191C18BF01215DF8044BB5E72C73002046
:10355800307300201C4C08B501210220FFF7E0FF62
:10356800237803F00502052A2AD003F00903092B62
:1035780008D000210120FFF7D3FF00210846FFF7FC
:10358800CFFFFEE7114A124B11681A680B68114CFD
:103598004FF6FE7003400B601388206823F0010388
:1035A8001B041B0C138018B12A2200238271C371DB
:1035B80002224E21FEF702FA2068FFF771FFD8E7D2
:1035C80014F0F4FE2378D0E7382F002030270020AD
:1035D80034270020B027002030B1036882881B8A76
:1035E8001A4214BF01200020704700BF38B50446B6
:1035F80090F8590000285AD104F11405236E80224E
:103608006B21284698476420FFF76EF9236E07223E
:103618006821284698476420FFF766F9236E002240
:103628006B21284698476420FFF75EF9236E012234
:103638006B21284698470F20FFF756F994F8532036
:10364800236E032A8CBF1A2218221B21284698476A
:103658000F20FFF749F9236E18221C2128469847A6
:103668000F20FFF741F9236E94F852201A212846BB
:1036780098470F20FFF738F9236E94F85420192142
:10368800284698476420FFF72FF9236E1222372126
:10369800284698470F20FFF727F92846236E01226E
:1036A800382198470F20BDE83840FFF71DB9FEF7CD
:1036B80025FD0546FFF790FF00289DD115B1202371
:1036C800E871AB7128460021FFF72EFD2146054B16
:1036D80041F8103F284623F0B1FE284623F028FE83
:1036E8008AE700BF050B00082DE9F0410B4E34684E
:1036F80073691C400FD0DFF828800127B4FA84F3DF
:10370800C3F11F0307FA03F558F823000368984725
:10371800AC437561F2D1BDE8F08100BF00040140FF
:10372800F46E00202DE9F0410B4E346873691C409B
:103738000FD0DFF828800127B4FA84F3C3F11F0300
:1037480007FA03F558F8230003689847AC437561F6
:10375800F2D1BDE8F08100BF00040140F46E002002
:103768002DE9F0410B4E346873691C400FD0DFF827
:1037780028800127B4FA84F3C3F11F0307FA03F57D
:1037880058F8230003689847AC437561F2D1BDE847
:10379800F08100BF00040140F46E00202DE9F041E3
:1037A8000B4E346873691C400FD0DFF8288001275E
:1037B800B4FA84F3C3F11F0307FA03F558F823009A
:1037C80003689847AC437561F2D1BDE8F08100BF4A
:1037D80000040140F46E00202DE9F0410B4E3468DE
:1037E80073691C400FD0DFF828800127B4FA84F3EE
:1037F800C3F11F0307FA03F558F823000368984735
:10380800AC437561F2D1BDE8F08100BF000401400E
:10381800F46E00202DE9F0410B4E346873691C40AA
:103828000FD0DFF828800127B4FA84F3C3F11F030F
:1038380007FA03F558F8230003689847AC43756105
:10384800F2D1BDE8F08100BF00040140F46E002011
:103858002DE9F0410B4E346873691C400FD0DFF836
:1038680028800127B4FA84F3C3F11F0307FA03F58C
:1038780058F8230003689847AC437561F2D1BDE856
:10388800F08100BF00040140F46E0020084A094896
:1038980008B5936943F0010393610021402231F098
:1038A80074F8054B4FF0FF321A60C3F8032008BDC7
:1038B80000100240F46E0020346F00202DE9F04122
:1038C800044618460D46164698462EF093FF27687C
:1038D800E6722844A07229467D694346324620464E
:1038E800AC46BDE8F0416047036810B504461B6864
:1038F8009847236820469B689847A37B0133A373A6
:1039080010BD00BF08B52120FEF7F8FB0C4B18606E
:1039180018B1112200238271C3712021FFF704FC22
:103928002020FEF7EBFB074B186018B1112200238B
:103938008271C3712021BDE80840FFF7F5BB00BFC5
:103948003C2F0020402F0020F0B484894FF6FF76EA
:103958004FF47A740BB300292ED00F78013101E0AF
:10396800B44217D00589013CAD07A4B2F8D5077356
:103978004FF47A7402E0BCB2B4420BD00589ED076B
:1039880004F1FF37F7D5057BEDB20AB115700132A6
:10399800013BDFE7094B984202D00120F0BC704799
:1039A800074A538B01339BB25383508B80B200304C
:1039B80018BF0120F0BC7047FF27D3E7003800404C
:1039C8003C6F0020427A02B9704710B5044603687C
:1039D800406804F10A0198470023637210BD00BFD4
:1039E800437A5A1C0344D2B242729972037A9342C0
:1039F80000D802B9704710B504460368406804F15E
:103A08000A0198470023637210BD00BF30B40B4D04
:103A1800002305F1800101E0272B0CD011F81320B9
:103A280082424FEA430403F10103F5D12C4494F890
:103A3800810030BC7047002030BC7047FC4A030846
:103A4800064B07498B4202D30023184670471A8851
:103A5800C2F30B029042F8D01433F3E728A7030807
:103A68009CAB0308024A136823EA00001060704701
:103A7800384400202DE9F047AF4FB04E17F054F806
:103A8800BE421ED2DFF83C83DFF83C9344462588CB
:103A980062197DB14A450DD2052D0BD9338861884D
:103AA800C3F30B03994200F0EB8014462588621992
:103AB800002DEFD1716830461436FDF762F9BE4229
:103AC800E4D39F4A1378A3F1170102290FD99D491E
:103AD80011F83300002840F0FF80D80001444978ED
:103AE80029B1994911F83330002B00F01D81974B0B
:103AF8005A78022A40F2EA80002295495A701A78C8
:103B08009448022A016000F2DD8002EB8201924BA8
:103B1800C2EBC10203EB4203998C5A8C8F4C914241
:103B2800236001D300225A848D4B9A78042A00F02E
:103B3800F28032B91A88B2F5F07F84BF4FF4F07280
:103B48001A80884DFDF778FC2B68874A1A40002AAE
:103B580000F0ED80D80700F1D980590400F1D18038
:103B68001A0700F1C9809B0400F1BF801DF0C8FB53
:103B780010B97E4828F09CFB8020FFF773FF4FF4B4
:103B88000070FFF76FFF4FF48020FFF76BFF4FF0D7
:103B98000070FFF767FF4FF08060FFF763FF4FF09B
:103BA8000060FFF75FFF22F029F8002130227048FB
:103BB80030F0EBFE20682CF00FFB6E4B266803F10B
:103BC800500102E0043399427AD01A78002AF9D1D8
:103BD8009C78D8788442F5D26749684B91F804E01C
:103BE8006748684D5C6B684B2860C827642111FBE7
:103BF8000E71DFF8D8E15960644F30F8061C644D47
:103C0800AEF8001000219960D96019615961996175
:103C1800D96183F8201083F821103A702E600CB116
:103C280016F056FC5B4B9FED5C5A1B885B4A9FED78
:103C38005C6A55795B4C5C495C48086006EE903AD2
:103C4800F8EEE66A1388C5EE265A07EE103A53884E
:103C58001279C4ED005A07EE903AB8EEC77A544B81
:103C6800F8EEE77A1D725A7227EE067A67EE867AC0
:103C7800BDE8F04783ED017AC3ED007A16F03CBF4A
:103C880063799B077FF411AF716894F804A03046FC
:103C9800FDF777F83388BAEB133F04D01436BE42E9
:103CA800FFF4F4AE0DE773887068AA1FC3F30B0323
:103CB8009A4204F10601A8BF1A462FF07DFDEDE7F0
:103CC800012289E700221A70234B25E7204902EBDD
:103CD800420201EB820112E7D8000C186468002C3C
:103CE8007FF4FCAE17241470F8E63248FFF7BAFEEA
:103CF8004020FFF7B7FE39E72F48FFF7B3FE2B68E0
:103D080031E72E48FFF7AEFE2B6829E72C48FFF76E
:103D1800A9FE2B6821E79A8AB2F57A7FBFF411AF22
:103D28004FF47A729A820CE718231370DFE643F097
:103D380001032B600EE700BF9CAB030828A703080C
:103D4800543D0020AC650308E8710308AC45002029
:103D5800BC450020F46B002094420020B8450020A8
:103D68005047002038440020096000026C7200208F
:103D78005C250020583D002070330020E0450020DD
:103D8800CE73002094250020843F00206C1D002065
:103D98009025002074210020C0C9FB48901F0020F6
:103DA80017B7D13878210020583100203661023DFC
:103DB800343100200940000201600002092000029D
:103DC8000860000202F0030800000408E43600203E
:103DD800F8B5174D2B78A52B28D16B78BE2B25D19C
:103DE800022229464FF6FF70FCF752FD114FAC1C1A
:103DF80022884AB1A618BE4218D2052A16D92146E9
:103E0800FCF746FD3446F3E721460222FCF740FD65
:103E18000222A118FCF73CFD0634074B641B1C80EA
:103E280041F60F53C31A58425841F8BD0020F8BD57
:103E380000F0030800000408023100202DE9F04FCB
:103E4800DFF848914C4F8BB00326A7EB09071822DF
:103E5800002104A830F099FD484BCDF81090059743
:103E68001A69120604D5464A5A6002F188325A6025
:103E780001228DF824203422DA60424B424C1B8800
:103E8800ADF800300222694604A8FDF70DF90222B8
:103E980069464FF6FF70FCF7FBFCDFF8F4A080469C
:103EA8004FF0000B544536D30AAC002524F8245DA6
:103EB8000222214604A8FDF7F7F8022221464046CF
:103EC800FCF7E6FC40BAC043ADF80800022202A99C
:103ED80004A8FDF7E9F8079860B106ABC0F1040241
:103EE8002946184430F051FD069904A8FDF782F8D8
:103EF800079508909DF82430089A23B11F490B694B
:103F080043F080030B61013E2DD0002A9FD1FFF7BB
:103F18005FFF50B32CE065888DF80DB0C5F30B0535
:103F2800AB1DADF808302388C3F30B02ADF80A20A7
:103F38001B0B062202A904A88DF80C30FDF7B4F873
:103F4800062202A94046FCF7A3FC616880462A467F
:103F580004A8FDF7A9F8616840462A46FCF798FCD2
:103F6800143480469EE7002AD1D00520FDF730F9A9
:103F78000BB0BDE8F08F00BF00000408002002402D
:103F880023016745CA4B030828A7030800F0030864
:103F98009CAB030808B516F0C7FDFFF74FFF16F0F6
:103FA800ABFDFFF767FD0120BDE8084028F06CBFB6
:103FB80008B5FDF7DFFA16F0B7FDFFF73FFFBDE8DC
:103FC800084016F099BD00BF08B516F0ADFDFFF723
:103FD80035FFBDE8084016F08FBD00BF0378202BE1
:103FE800024600F10100F9D0092BF7D02D2B2CD077
:103FF8002B2B03BF5378B7EE000A0246B7EE000A30
:10400800A3F13001C8B209289FED467A10D8F2EE24
:10401800046A07EE901AF8EEE77A12F8013FE7EE25
:10402800267AA3F13001C8B20928B0EE677AF0D930
:104038002E2B4CD003F0DF03452B0BD0F7EE007A84
:1040480067EE276A20EE260A70475378BFEE000A0B
:104058000246D5E710B451782D2959D02B290ABF2B
:104068009178501C901C0024A1F13003092B53D8DF
:10407800002303EB830301EB430310F8011FA1F1B5
:104088003002092AA3F13003F3D9B3F59A7F28BF88
:104098004FF49A73072B42D9DFED236A1A46F7EEDD
:1040A800007A083A072A67EEA67AFAD803F00703D7
:1040B8002BB1F2EE046A013B67EEA67AFBD124B37A
:1040C800C7EE276A5DF8044B20EE260A704753783E
:1040D800A3F13001C8B2092802F10102AAD8F2EE10
:1040E800046AF0EE665A07EE901AF8EEE77A12F8CC
:1040F800013F87EEA66AA3F13001C8B2092866EE2F
:10410800A56A37EE067AEED994E767EE276AD9E70B
:10411800901C91780124A7E7F7EE007ACFE7F7EE35
:10412800007AC5E70000000020BCBE4CB5EEC00A0E
:10413800DFED317AF1EE10FACCBF30EE270A30EE1F
:10414800670ADFED2E7A20EE270A30B5FDEEC07A39
:1041580087B017EE904A054684EAE470002303A965
:10416800A0EBE4700193009302931DF071FD002C05
:10417800ACBF20232D2303A88DF800302EF03AFB86
:10418800012803A924D002282DD0032805BF3023F5
:10419800684668468DF8013030F01DFC68462EF000
:1041A80029FB0338C4B222466946284630F071FC20
:1041B80000232B5528462EF01DFB2E22431C2A5483
:1041C8000DEB0401E81830F023FC284607B030BD99
:1041D800302368468DF801308DF802308DF80330B1
:1041E80030F0F9FBDAE7302368468DF801308DF8B6
:1041F800023030F0F0FBD1E76F12033A00007A4446
:104208002DE9F041064615460846B6FBF2F43CB9DE
:1042180005FB1464124B1B5D00F8013BBDE8F081FF
:10422800B4FBF2F767B90E4B05FB174705FB14649F
:10423800DA5D00F8012B1B5D00F8013BBDE8F08159
:10424800B7FBF2F8B8F1000F02D04046FFF7D8FFED
:1042580005FB1878024B13F8082000F8012BE3E758
:104268007C75030830B402681146531C036011F8CA
:10427800024B0160D31C517803609378151D0560CB
:104288001B0443EA0123D078234343EA006030BC8F
:10429800704700BF0368591C1A46016012F8021BD8
:1042A8000260587841EA0020704700BF03685A1C32
:1042B80002601878704700BF38B504460068154694
:1042C8002FF07AFA22682A44226038BD036810B4B5
:1042D8000A0A5C1C04601A7003685A1C0260197090
:1042E8005DF8044B704700BF03685A1C026010B4A5
:1042F800197003680A0A5C1C04601A7003680A0CC7
:104308005C1C04601A700368090E5A1C026019705C
:104318005DF8044B704700BF03685A1C02601970AF
:104328000368090A5A1C0260197070472DE9F047A2
:10433800002488B080460F461E46A14605AD531C92
:104348000393117839B3252933D1931CCDF81090F4
:104358000393507830284ED04FF0000AA0F1300374
:10436800DBB2092B42D96C2819D0642800F093805D
:1043780024D825281CD063D9582876D063281BD187
:1043880031784046B847039A531C03931178043692
:1043980001340029D7D1204608B0BDE8F087039B37
:1043A8005A1C03921B78642B7CD02AD8252B54D115
:1043B800252140460134B847039AC0E7732833D013
:1043C80044D975284FD106F1040E30682B460022D7
:1043D8000A217646FCF752F9049A00955346394665
:1043E8004046FCF789F9039A0444A8E704AA03A9FC
:1043F8001DF00AFCB7E7D31C039390784FF0010A2D
:10440800ACE7732B10D05BD9752B3AD0782B96D1AB
:10441800A3F15802B2FA82F2306852092B461021F1
:104428000436FCF72BF9D7E73368049A009339462A
:1044380000234046FCF760F904360444039A7EE7FB
:104448000028B9D1204608B0BDE8F0876E28B3D15E
:10445800039A336804361C6071E72AD9582BD7D0E1
:10446800632B8DD06BE77828A6D1A0F15802B2FA59
:1044780082F2306852092B461021FCF7FFF8043607
:10448800AAE706F1040E30682B4600220A21764678
:10449800FCF7F4F8A0E7331D306829461E46FCF700
:1044A800BFF899E7331D306829461E46FCF7B8F86F
:1044B80092E7002B7FF443AF204608B0BDE8F087B1
:1044C8006E2BC6D03BE700BF0EB400B584B005AB79
:1044D800019053F8042B0649039301A8FFF726FF20
:1044E800019B00221A7004B05DF804EB03B070471A
:1044F800F50600080FB430B583B006AB0A490B487F
:1045080053F8042B096800680193FFF70FFF084C64
:1045180005462068FEF78AFB0028FAD0284603B033
:10452800BDE8304004B07047302F0020342F002001
:10453800EC880020DFED2B7AB4EEE70AF1EE10FAF2
:104548004ADDDFED296A9FED297A01E0B0EE670ABE
:10455800B4EEC70AF1EE10FA70EE667AF6DC9FED5B
:10456800247AF4EEC77AF1EE10FA38D5DFED1E6A38
:104578009FED207A01E0F0EE407AF4EEC77AF1EE92
:1045880010FA37EEA60AF6D4DFED1B7AB4EEE70A86
:10459800F1EE10FA14DDDFED137A37EEC00A60EEA3
:1045A800006A9FED166A9FED167ADFED167AA6EE81
:1045B800867A20EE266AE6EE877AA6EE270A704704
:1045C800DFED117AB4EEE70AF1EE10FA44BFDFED41
:1045D800087A37EEC00AE2E7F0EE407ABFE7B0EEBD
:1045E800670AD1E7DB0F4940DB0FC940E4CB16412E
:1045F800DB0F49C0E4CB16C1DB0FC93F92E741B9D5
:104608009730083C15A82ABEDB0FC9BF80EAE073C3
:10461800A3EBE0738B4205DB002801DD401A7047ED
:1046280002D17047002070470844704709B909E073
:10463800194690FBF1F301FB13030846002BF7D151
:10464800084670470146FBE707EE901AF8EE677ACE
:104658009FED837A27EE800A20EE070AFDEEC07AE6
:1046680017EE903A2033402B00F28C80DFED7D7AF4
:10467800B4EEE70AF1EE10FA40F3E880B0EE407AC3
:104688009FED796ADFED796A01E0B0EE677AB4EE02
:10469800E67AF1EE10FA77EE467AF6DC9FED747A58
:1046A800F4EEC77AF1EE10FA40F1CD809FED6E6A14
:1046B800DFED706A01E0F0EE477AF4EEE67AF1EEAB
:1046C80010FA37EE867AF6D4DFED6B7AB4EEE77A35
:1046D800F1EE10FA51DCDFED697AB4EEE77AF1EE2B
:1046E80010FA44BFDFED627A37EEC77A27EE076A21
:1046F800DFED635ADFED637ADFED636A9FED635A9E
:10470800E6EE257A67EE065AE6EE276AF7EE007AB5
:10471800A5EEA67AF0EE675AE7EE055AE7EE457A77
:1047280087EEA55ADFED547A30EE277AFDEEC76A98
:1047380016EE903A2033402B29D99FED557AF6EEA4
:10474800006AB7EE006AF7EE004AC4EEA57A0023C5
:10475800836143610362C36180ED045A67EEA66A10
:1047680027EE866A27EE877AC0ED006AC0ED026AF6
:1047780080ED016A80ED037A7047DFED3A7A37EE13
:10478800C77AB3E7B7EE005AF0EE455ACAE7B4EE77
:10479800E70AF1EE10FA5FDD9FED336ADFED336A69
:1047A80001E0B0EE677AB4EEE67AF1EE10FA77EE51
:1047B800467AF6DC9FED2E7AF4EEC77AF1EE10FA1F
:1047C80047D59FED296ADFED2B6A01E0F0EE477AC5
:1047D800F4EEE67AF1EE10FA37EE867AF6D4DFEDEB
:1047E800267AB4EEE77AF1EE10FA27DCDFED237AC9
:1047F800B4EEE77AF1EE10FA44BFDFED1D7A37EE3A
:10480800C77A27EE076ADFED1E4ADFED1E6ADFED85
:104818001E7AE6EE246A67EE064AE6EE267AB7EED8
:10482800006AA4EEA77AF6EE006A36EE476AF8EE5A
:10483800007A27EE277A66EE266A84E7DFED097AA2
:1048480037EEC77ADDE7B0EE677A3DE7F0EE407AFB
:1048580024E7B0EE677AC2E7F0EE477AAAE700BF2E
:1048680027D4D236DB0F4940DB0FC940E4CB1641D1
:10487800DB0F49C0E4CB16C1DB0FC93FDB0FC9BF53
:1048880092E741B99730083C15A82ABEF304353F92
:104898000000008070B406688E4217D90139751E71
:1048A800002311F8014F0822634013F0800F4FEAEC
:1048B800430318BF83F0D503013ADBB2F5D18D422B
:1048C800EFD1721C0260337070BC70470023F8E7A8
:1048D80010B44C09012250F8243001F01F0102FAEB
:1048E80001F10B4340F824305DF8044B704700BFDA
:1048F8004B0901F01F0150F82320012303FA01F1AD
:10490800114214BF18460020704700BFB0F1FF3FA6
:104918000AD0022810B403DC5DF8044BFCF7A6B9F2
:1049280000205DF8044B7047002070470378012B86
:1049380048D0022B44D170B4836801F07F0113B1D1
:104948001C689B882385446840F2E93501E0002D06
:1049580048D02689013D16F0020FADB2F7D0217379
:1049680004F10C0340F2E93101E0002944D0258923
:10497800013915F0010F89B2F7D01B78446840F26D
:10498800E93100E021B32589013915F0020F89B218
:10499800F8D0227304F10C0140F2E93300E0BBB116
:1049A8002289013B12F0010F9BB2F8D00B78836883
:1049B800002B2CD01A689B889361012070BC70472B
:1049C8000020704713460A46417990F904009DE794
:1049D800104B9C42EBD1104A538B01339BB253834B
:1049E800538BE4E70B4B9C42C9D10B494B8B0133EA
:1049F8009BB24B834B8BC2E7064B9C42BED1064908
:104A08004B8B01339BB24B834B8B4468B7E7012038
:104A1800D4E700BF003800403C6F00202DE9F04F7C
:104A28004FF48073814685B043838383C38309F140
:104A38000C0A3220FDF758FF112200215046FFF7DB
:104A480075FF602201215046FFF770FF6420FDF7D3
:104A58004BFF484602A9FCF741FB00260123DFF87B
:104A68002CB10096B04637460193009B012B14BF2A
:104A78001122122200215046FFF758FF009B002BFD
:104A88000CBF01244FF0FF340A250121504622F0C3
:104A98007BFE1420FDF728FF02A94846FCF71EFB01
:104AA800BDF90AE0BDF90C10BDF908208E45734622
:104AB800A8BF0B469342A8BF13465B454FF00100C1
:104AC80004FB0E8804FB016602FB047739DBFEF762
:104AD800C7F8013DD9D1009B0133022B0093C4D103
:104AE800284B93FBF7F793FBF8F87022A3F5842380
:104AF800002193FBF6F6A9F81A70A9F81C80A9F80A
:104B08001E605046FFF712FF202201215046FFF792
:104B18000DFF0021504622F037FE6420FDF7E4FE29
:104B2800019B3BB94FF48073A9F81A30A9F81C30DF
:104B3800A9F81E3099F8190030B9012005B0BDE870
:104B4800F08F00230193C6E7FDF7D8FA0446FEF775
:104B580043FD0028F1D01CB122220023A271E37189
:104B680020460021FEF7E0FA4946074B41F8083F86
:104B7800204622F063FC204622F0DAFB012005B033
:104B8800BDE8F08F00D03B00D108000801F0FFFF1E
:104B9800F0B500F10C0485B006460F4620460DF12D
:104BA8000702022122F01AFD18B19DF80730DB0731
:104BB80003D40025284605B0F0BD02AA03212046EB
:104BC80022F076FD0DF107020921204622F006FDAC
:104BD80005460028EDD0204611220A21FFF7A6FE3F
:104BE8009DF8073013F00C0FE3D19DF809109DF8DC
:104BF8000820738B42EA012213FB02F3002BB8BF93
:104C0800FF3323F30F235B423B809DF80B109DF885
:104C18000A20B38B42EA012213FB02F3002BB8BF30
:104C2800FF3323F30F235B427B809DF80D109DF823
:104C38000C20F38B42EA012213FB02F3002BB8BFCE
:104C4800FF3323F30F235B42BB80B3E73122F42108
:104C58006CE600BFF0B55B4B5B4A97B019689142B0
:104C680000AF00F0A3805949594A00234FF470005F
:104C7800C1F888003B607B60136843F4803313609D
:104C880003E03B68B3F5A04F09D0136803F4003381
:104C98007B603B6801333B607B68002BF1D04C4B59
:104CA8001B6813F4003318BF01237B607B68012B5A
:104CB80052D0464C464B474AE260474A596A11600F
:104CC8005A6A42F080725A625A6942F4FC025A6186
:104CD8000025032207F10801012341F6FF764FF072
:104CE8009040FD60BE603A73BB731FF00DF94FF63C
:104CF800FF7307F108013948BB601FF005F907F198
:104D080008013748374E1FF0FFF807F10801364809
:104D18001FF0FAF807F1080134481FF0F5F807F119
:104D2800080133481FF0F0F807F108001FF046F9B2
:104D3800BB683049304AA1FB031330499B0CF02073
:104D48004FF0070E5C370B60566084F823009560BF
:104D5800C2F800E0BD46F0BD294A1D4B1221116082
:104D68005A685A605A685A605A6842F480625A60AF
:104D78005A6822F47C125A605A6842F4E8125A605F
:104D88001A6842F080721A601A689201FCD5596854
:104D98000F4A21F003015960596841F00201596036
:104DA800536803F00C03082BFAD182E700221A603B
:104DB80062B6144B1B6883F30888134B1B6898472B
:104DC800FEE700BFFC9F0020EFBEADDE00ED00E077
:104DD800001002400005FA05204B0020000400489E
:104DE800000800483F190100000C00480010004866
:104DF8000014004883DE1B4310E000E068730020C5
:104E08000020024000D8FF1F04D8FF1F064A0023D5
:104E18005168814202F11C0204D001330C2BF7D1F6
:104E280000207047D8B270471001002070B50F4CB1
:104E38000F4DC0EBC00004EB80046869266930435D
:104E4800686182B09209667BA1600025012101A8F2
:104E580063618DF804608DF805208DF806508DF893
:104E680007101FF01BF802B070BD00BF1001002032
:104E780000100240074BC0EBC00030B403EB8000C9
:104E8800054C056963692B4363610176427630BC42
:104E9800704700BF10010020001002402DE9F04FBC
:104EA800554C54F8204083B0002C60D0656D1F46E7
:104EB8009046524B6A68E264A160236004F15A018B
:104EC8004FF4807304F5AD726161A261E360236100
:104ED8000646287E23F0CCF9E86858B1FFF796FF1C
:104EE800721CD2B20C21FFF7C5FFE36CEA6822639B
:104EF8002433A364A86890B1FFF788FF721C814629
:104F0800D2B20B21FFF7B6FF2346EA7E3C4948465A
:104F1800FFF78CFFE36CAA6862632833636494F834
:104F28005900FDF7EBF8814694F85800FDF7E6F8CC
:104F38003A07824695F819B01DD5B9F1000F1AD075
:104F480017F0110F4FF00B0306F1010614BF4E21A5
:104F58003E2189F8063089F807605A464846FCF72A
:104F68002DFDFB0743D5236B6BB3636B5BB3204607
:104F780003B0BDE8F08F17F0010F0CBF2E274E27A6
:104F880018F0020F0DD0B9F1000F0AD00B22731CD4
:104F980089F8062089F8073048465A463946FCF70A
:104FA8000DFD18F0010FDED0BAF1000FDBD001368D
:104FB8000C238AF807605A4639468AF80630504664
:104FC800FCF7FCFCCFE72B7FAA7E8DF804209B0919
:104FD8000021012201A88DF805308DF806108DF802
:104FE80007201EF05BFF204603B0BDE8F08F48465F
:104FF800FEF756FAB7E700BF442F0020CC4B030852
:10500800AD0B00080348D0F83C3113B100F59A7095
:1050180018477047100100200348D0F8203113B119
:1050280000F58C7018477047100100200348D0F82D
:1050380004310BB1FC301847704700BF1001002045
:105048000348D0F8E8300BB1E0301847704700BF8C
:10505800100100200348D0F8CC300BB1C4301847F9
:10506800704700BF100100200348D0F8B0300BB1E2
:10507800A8301847704700BF100100200348D0F837
:1050880094300BB18C301847704700BF10010020D6
:105098000248836F0BB17030184770471001002029
:1050A8000248C36D0BB154301847704710010020F7
:1050B8000248036C0BB138301847704710010020C4
:1050C8000248436A0BB11C30184770471001002092
:1050D8000248836803B11847704700BF10010020D9
:1050E800F0B53E4C059D00EB800004EB800464683D
:1050F800002C71D03A4E49004FF42040CFB23061B5
:10510800A169090454D46068DFF8E0E047F49031FD
:1051180000EA0E0001434FF420406160306103E073
:10512800411E002848D00846A1698907F8D54FF4E0
:105138002040A262306103E0421E00283CD01046A5
:10514800A2695206F8D5274A6168DFF8A0E0306105
:1051580042EA0342174301EA0E0217436760C3B1EC
:10516800013BDBB201332B44A0694FF4204210F01D
:10517800040002F1FF3207D1511C26D0A06910F0BB
:10518800040002F1FF32F7D0626A05F8012B9D4254
:10519800EAD14FF42040306102E0431E60B1184666
:1051A800A3699B06F9D520233061E3610120F0BD96
:1051B800411E08B10846A3E70B4A138801339BB286
:1051C8004FF0FF3113803161F0BD074932610B8820
:1051D80001339BB20B80F0BD2046F0BD0473002064
:1051E800441F00200024000200310020009800FC29
:1051F80070B50C460178012982B0054632D00229E3
:1052080036D11E46836844F0800113B118689B8824
:105218000385686840F2E93301E0002B32D0048945
:10522800013B14F0020F9BB2F7D0017300F10C049C
:1052380040F2E93301E0002B2ED00189013B11F047
:10524800010F9BB2F7D02378686833460021FEF738
:105258007BFBAB68002B2AD01A689B8893610120DE
:1052680002B070BD90F90400411C01D0022802DD93
:10527800002002B070BD697900922246FFF730FF26
:1052880002B070BD0B4B9842DFD10B494B8B0133F9
:105298009BB24B834B8BD8E7064B9842D4D1064937
:1052A8004B8B01339BB24B834B8B6868CDE7012056
:1052B800DFE700BF003800403C6F002030B500F148
:1052C8000C0483B0054600220A212046FFF72EFB76
:1052D8001420FDF709FB0F220A212046FFF726FBC1
:1052E8000A20FDF701FB01AA032310212046FFF73E
:1052F8007FFF0A20FDF7F8FA9DF804109DF80520B5
:105308009DF80630803180338032EB836983AA832D
:105318000A2100222046FFF709FB0A20FDF7E4FADC
:105328000DF103022046022122F058F90DF1030283
:105338002046092122F052F9204611220A21FFF7BE
:10534800F5FA012003B030BD00B583B0002000920B
:105358000A466821FFF7C4FE03B05DF804FB00BFEE
:105368001749184B184A194810B4D1F8884044F422
:105378007004C1F888401C6844F001041C605C6833
:1053880022405A601A6822F0847222F480321A602D
:105398001A6822F480221A605A6822F4FE025A60BF
:1053A800DA6A22F00F02DA621A6B002410404FF01A
:1053B800006218639C608A605DF8044B704700BF08
:1053C80000ED00E0001002400CC07FF8CCFC00FFAC
:1053D80008B512F059FF024B024ADA60FEE700BF37
:1053E80000ED00E00400FA052DE9F04F2DED028BE9
:1053F800A0F10A0389B00C46E72B00F24586DFE8E6
:1054080013F01C01430643064306430643064306BE
:10541800430643064306430643064306430643063C
:10542800430643064306430643064306430643062C
:1054380043069205430643064306B1054306430661
:1054480043063506430691014306730243064A02A2
:10545800430642024306000443062E02430643065F
:1054680043062802210243060E02430643060702AA
:1054780043064306430643064306F4014306430630
:1054880043064306D5014306FC0043066C056E013E
:1054980043064306430643064306430643062D01D7
:1054A80043063D054306F10443069D04430689046B
:1054B8004306430643064306E202FA05F205C10520
:1054C800E80043064306AD033C0343060503C60252
:1054D8004306430643064306BB02430643069A02B5
:1054E8004306430643068B02E90399035703430621
:1054F80043064306480343067A045A044306430610
:10550800430643064306430643064306430643064B
:1055180043064306430643064306E20243064306A0
:10552800430643064306430643064306430643062B
:10553800430643064306430643064306430643061B
:10554800430643064306430643064306430643060B
:1055580043064306430643064306430643064306FB
:1055680043064306430643064306430643064306EB
:1055780043064306430643064306430643064306DB
:1055880043064306430643064306430643064306CB
:1055980043064306430643064306430643064306BB
:1055A80043064306430643064306430643064306AB
:1055B800430643064306430643064306430643069B
:1055C80043064306430643064306430643064F0481
:1055D8002504B64E337853B1B54F002537F8021F6E
:1055E8002046FEF799FE33780135AB42F6DC012000
:1055F80009B0BDEC028BBDE8F08FAC4E3378002BC0
:10560800F5D0AC4F0025B846236817F81520591C6B
:1056180021601A7098F8011001EB810101EB8101FA
:1056280001F2EE2189B22046FEF776FE3378013585
:10563800AB4208F10208E7DCD9E79F4D28462DF078
:10564800D9F80028D3DD2B460544226813F8011B3E
:10565800501C9D4220601170F7D1C8E71AF060FF16
:10566800FF28064600F01D8608A9002501F8125DEE
:105678000DF10D008DF80D501AF032FF08A800F852
:10568800115D1AF021FF08A800F8105D1AF010FF4C
:1056980008A820F8085D1AF0FFFE23685A1C22604B
:1056A8001E7023689DF80D20591C21601A7023680C
:1056B8009DF80E20591C21601A7023689DF80F2050
:1056C800591C21601A7023689DF81020591C21600C
:1056D8001A702046BDF81810FEF71EFE87E70B6803
:1056E800764E01255A1C0A601D700B68B27859194C
:1056F80021601A7023F05EFD2368714A71495F19B1
:1057080027601870B1F90010B2F90000FEF78EFF9B
:1057180023685A192260187031882046FEF7FCFD6C
:10572800284665E7684D0B682A7A591C21601A706B
:10573800A98B2046FEF7F0FD298B2046FEF7ECFDED
:10574800698B2046FEF7E8FD2368EA7C591C216036
:105758001A70A98C2046FEF7DFFDE98C2046FEF77B
:10576800DBFD2368AA7F591C21601A70236895F80D
:105778002020591C21601A70698C2046FEF7CCFD48
:105788002368EA7A591C21601A70E9682046FEF7F6
:10579800ABFD23682A7C591C21601A70236895F890
:1057A8002120591C216001201A7021E70B68474D00
:1057B800591C2A7921601A7023686A79591C21605A
:1057C8001A7029882046FEF7A7FD2368AA79591C74
:1057D80021601A7069882046FEF79EFD2368EA79E1
:1057E800591C216001201A7002E70B6800255A1C19
:1057F8000A6020461D702946FEF776FD2946204698
:10580800FEF772FD20462946FEF76EFD0120EFE601
:10581800084608222C49FEF74FFD0120E8E60B68F0
:105828002B4A2C4990785D1C2560187023685278A3
:10583800581C20601A7023680A79591C21600120BD
:105848001A70D5E60B6801229918216010461A7063
:10585800CEE608460021FEF747FD0120C8E61E4DAA
:105868001E4E05F1300795F902101D4B93F90620DD
:105878008A4203F1080300F00A849E42F6D10835F3
:10588800BD42F0D1B3E60B680F4A591C527D216026
:1058980001201A70ACE6134D05F1800655F8041F77
:1058A8002046FEF721FDAE42F8D1A0E6AC46002026
:1058B800E6690020F43700209C730020B4430020E0
:1058C8008473002086730020F44A0020703300207F
:1058D800E8730020901F00206C720020D04A00203E
:1058E800A04A0020643E0020A84D05F14006B5F806
:1058F80080102046FEF710FD236895F88220591C79
:1059080021601A70236895F883200435591CAE422B
:1059180021601A70EBD16AE69D4D08462988FEF78A
:10592800FBFC69882046FEF7F7FC2046A988FEF7AD
:10593800F3FC01205CE6974D05F16006A988204636
:10594800FEF7EAFCE9882046FEF7E6FC29892046AE
:10595800FEF7E2FC2368AA7A591C21601A702368B2
:10596800EA7A591C21601A7055F80C1B2046FEF77C
:10597800BBFCB542E2D13AE6874952232268501C63
:105988002060137011F8013F002BF7D12FE68348F0
:1059980000232268056803EB4301561C6D5C2660F2
:1059A8001570026825680A446E1C527826602A70B1
:1059B800026825680A4401339278691C0A2B216021
:1059C8002A70E6D113E600258146DFF8FC81DFF86E
:1059D800FCB1059504950695079501214FF6FF7AC8
:1059E80005E001350B2D00F0708318F9011F4F1CDD
:1059F8004AFA05F3F5D0DE07F3D5BBF800302B41A2
:105A0800D807EED506A8FEF763FFEAE7644D0B68F2
:105A18002A68591C127821601A702B6822689978B4
:105A2800531C2360002311702A6821681A4401332B
:105A38005279481C032B20600A70F5D123682A6824
:105A4800591C127A21601A7023682A68591CD27866
:105A580021601A7023682A68591C127921601A700B
:105A68002B6820465989FEF757FC2A682368527A22
:105A7800591C21601A702A68FEE24A4B08461968C8
:105A8800FEF732FC484B20461988FEF745FC0120FA
:105A9800AEE5464D0846298AFEF73EFC698A20464F
:105AA800FEF73AFC2046A98AFEF736FC01209FE55E
:105AB800DFF81CE10027FEB2714600232268501C63
:105AC800206016702268501C20601370226811F83C
